{
  "address": "0x6e4796054d58934EEE5a8b04f11d87086F96d13d",
  "abi": [
    {
      "inputs": [
        {
          "internalType": "address",
          "name": "token_addr",
          "type": "address"
        },
        {
          "internalType": "uint256",
          "name": "min_time",
          "type": "uint256"
        }
      ],
      "stateMutability": "nonpayable",
      "type": "constructor"
    },
    {
      "anonymous": false,
      "inputs": [
        {
          "indexed": true,
          "internalType": "address",
          "name": "provider",
          "type": "address"
        },
        {
          "indexed": false,
          "internalType": "uint256",
          "name": "value",
          "type": "uint256"
        },
        {
          "indexed": true,
          "internalType": "uint256",
          "name": "locktime",
          "type": "uint256"
        },
        {
          "indexed": false,
          "internalType": "enum VotingEscrow.DepositType",
          "name": "deposit_type",
          "type": "uint8"
        },
        {
          "indexed": false,
          "internalType": "uint256",
          "name": "ts",
          "type": "uint256"
        }
      ],
      "name": "Deposit",
      "type": "event"
    },
    {
      "anonymous": false,
      "inputs": [
        {
          "indexed": true,
          "internalType": "address",
          "name": "previousOwner",
          "type": "address"
        },
        {
          "indexed": true,
          "internalType": "address",
          "name": "newOwner",
          "type": "address"
        }
      ],
      "name": "OwnershipTransferred",
      "type": "event"
    },
    {
      "anonymous": false,
      "inputs": [
        {
          "indexed": false,
          "internalType": "uint256",
          "name": "prevSupply",
          "type": "uint256"
        },
        {
          "indexed": false,
          "internalType": "uint256",
          "name": "supply",
          "type": "uint256"
        }
      ],
      "name": "Supply",
      "type": "event"
    },
    {
      "anonymous": false,
      "inputs": [
        {
          "indexed": true,
          "internalType": "address",
          "name": "provider",
          "type": "address"
        },
        {
          "indexed": false,
          "internalType": "uint256",
          "name": "value",
          "type": "uint256"
        },
        {
          "indexed": false,
          "internalType": "uint256",
          "name": "ts",
          "type": "uint256"
        }
      ],
      "name": "Withdraw",
      "type": "event"
    },
    {
      "inputs": [],
      "name": "MAXTIME",
      "outputs": [
        {
          "internalType": "uint256",
          "name": "",
          "type": "uint256"
        }
      ],
      "stateMutability": "view",
      "type": "function"
    },
    {
      "inputs": [],
      "name": "MINTIME",
      "outputs": [
        {
          "internalType": "uint256",
          "name": "",
          "type": "uint256"
        }
      ],
      "stateMutability": "view",
      "type": "function"
    },
    {
      "inputs": [
        {
          "internalType": "address",
          "name": "addr",
          "type": "address"
        }
      ],
      "name": "add_to_whitelist",
      "outputs": [],
      "stateMutability": "nonpayable",
      "type": "function"
    },
    {
      "inputs": [
        {
          "internalType": "address",
          "name": "addr",
          "type": "address"
        }
      ],
      "name": "balanceOf",
      "outputs": [
        {
          "internalType": "uint256",
          "name": "",
          "type": "uint256"
        }
      ],
      "stateMutability": "view",
      "type": "function"
    },
    {
      "inputs": [
        {
          "internalType": "address",
          "name": "addr",
          "type": "address"
        },
        {
          "internalType": "uint256",
          "name": "_block",
          "type": "uint256"
        }
      ],
      "name": "balanceOfAt",
      "outputs": [
        {
          "internalType": "uint256",
          "name": "",
          "type": "uint256"
        }
      ],
      "stateMutability": "view",
      "type": "function"
    },
    {
      "inputs": [
        {
          "internalType": "address",
          "name": "addr",
          "type": "address"
        },
        {
          "internalType": "uint256",
          "name": "_t",
          "type": "uint256"
        }
      ],
      "name": "balanceOfAtT",
      "outputs": [
        {
          "internalType": "uint256",
          "name": "",
          "type": "uint256"
        }
      ],
      "stateMutability": "view",
      "type": "function"
    },
    {
      "inputs": [
        {
          "internalType": "address",
          "name": "_newController",
          "type": "address"
        }
      ],
      "name": "changeController",
      "outputs": [],
      "stateMutability": "nonpayable",
      "type": "function"
    },
    {
      "inputs": [],
      "name": "checkpoint",
      "outputs": [],
      "stateMutability": "nonpayable",
      "type": "function"
    },
    {
      "inputs": [
        {
          "internalType": "address",
          "name": "",
          "type": "address"
        }
      ],
      "name": "contracts_whitelist",
      "outputs": [
        {
          "internalType": "bool",
          "name": "",
          "type": "bool"
        }
      ],
      "stateMutability": "view",
      "type": "function"
    },
    {
      "inputs": [],
      "name": "controller",
      "outputs": [
        {
          "internalType": "address",
          "name": "",
          "type": "address"
        }
      ],
      "stateMutability": "view",
      "type": "function"
    },
    {
      "inputs": [
        {
          "internalType": "uint256",
          "name": "_value",
          "type": "uint256"
        },
        {
          "internalType": "uint256",
          "name": "_unlock_time",
          "type": "uint256"
        }
      ],
      "name": "create_lock",
      "outputs": [],
      "stateMutability": "nonpayable",
      "type": "function"
    },
    {
      "inputs": [],
      "name": "decimals",
      "outputs": [
        {
          "internalType": "uint8",
          "name": "",
          "type": "uint8"
        }
      ],
      "stateMutability": "view",
      "type": "function"
    },
    {
      "inputs": [
        {
          "internalType": "address",
          "name": "_addr",
          "type": "address"
        },
        {
          "internalType": "uint256",
          "name": "_value",
          "type": "uint256"
        }
      ],
      "name": "deposit_for",
      "outputs": [],
      "stateMutability": "nonpayable",
      "type": "function"
    },
    {
      "inputs": [],
      "name": "epoch",
      "outputs": [
        {
          "internalType": "uint256",
          "name": "",
          "type": "uint256"
        }
      ],
      "stateMutability": "view",
      "type": "function"
    },
    {
      "inputs": [
        {
          "internalType": "address",
          "name": "addr",
          "type": "address"
        }
      ],
      "name": "get_last_user_slope",
      "outputs": [
        {
          "internalType": "int128",
          "name": "",
          "type": "int128"
        }
      ],
      "stateMutability": "view",
      "type": "function"
    },
    {
      "inputs": [
        {
          "internalType": "uint256",
          "name": "_value",
          "type": "uint256"
        }
      ],
      "name": "increase_amount",
      "outputs": [],
      "stateMutability": "nonpayable",
      "type": "function"
    },
    {
      "inputs": [
        {
          "internalType": "uint256",
          "name": "_value",
          "type": "uint256"
        },
        {
          "internalType": "uint256",
          "name": "_unlock_time",
          "type": "uint256"
        }
      ],
      "name": "increase_amount_and_time",
      "outputs": [],
      "stateMutability": "nonpayable",
      "type": "function"
    },
    {
      "inputs": [
        {
          "internalType": "uint256",
          "name": "_unlock_time",
          "type": "uint256"
        }
      ],
      "name": "increase_unlock_time",
      "outputs": [],
      "stateMutability": "nonpayable",
      "type": "function"
    },
    {
      "inputs": [
        {
          "internalType": "address",
          "name": "",
          "type": "address"
        }
      ],
      "name": "locked",
      "outputs": [
        {
          "internalType": "int128",
          "name": "amount",
          "type": "int128"
        },
        {
          "internalType": "uint256",
          "name": "end",
          "type": "uint256"
        }
      ],
      "stateMutability": "view",
      "type": "function"
    },
    {
      "inputs": [
        {
          "internalType": "address",
          "name": "_addr",
          "type": "address"
        }
      ],
      "name": "locked__end",
      "outputs": [
        {
          "internalType": "uint256",
          "name": "",
          "type": "uint256"
        }
      ],
      "stateMutability": "view",
      "type": "function"
    },
    {
      "inputs": [],
      "name": "name",
      "outputs": [
        {
          "internalType": "string",
          "name": "",
          "type": "string"
        }
      ],
      "stateMutability": "view",
      "type": "function"
    },
    {
      "inputs": [],
      "name": "owner",
      "outputs": [
        {
          "internalType": "address",
          "name": "",
          "type": "address"
        }
      ],
      "stateMutability": "view",
      "type": "function"
    },
    {
      "inputs": [
        {
          "internalType": "uint256",
          "name": "",
          "type": "uint256"
        }
      ],
      "name": "point_history",
      "outputs": [
        {
          "internalType": "int128",
          "name": "bias",
          "type": "int128"
        },
        {
          "internalType": "int128",
          "name": "slope",
          "type": "int128"
        },
        {
          "internalType": "uint256",
          "name": "ts",
          "type": "uint256"
        },
        {
          "internalType": "uint256",
          "name": "blk",
          "type": "uint256"
        }
      ],
      "stateMutability": "view",
      "type": "function"
    },
    {
      "inputs": [
        {
          "internalType": "address",
          "name": "addr",
          "type": "address"
        }
      ],
      "name": "remove_from_whitelist",
      "outputs": [],
      "stateMutability": "nonpayable",
      "type": "function"
    },
    {
      "inputs": [],
      "name": "renounceOwnership",
      "outputs": [],
      "stateMutability": "nonpayable",
      "type": "function"
    },
    {
      "inputs": [
        {
          "internalType": "uint256",
          "name": "",
          "type": "uint256"
        }
      ],
      "name": "slope_changes",
      "outputs": [
        {
          "internalType": "int128",
          "name": "",
          "type": "int128"
        }
      ],
      "stateMutability": "view",
      "type": "function"
    },
    {
      "inputs": [],
      "name": "supply",
      "outputs": [
        {
          "internalType": "uint256",
          "name": "",
          "type": "uint256"
        }
      ],
      "stateMutability": "view",
      "type": "function"
    },
    {
      "inputs": [],
      "name": "symbol",
      "outputs": [
        {
          "internalType": "string",
          "name": "",
          "type": "string"
        }
      ],
      "stateMutability": "view",
      "type": "function"
    },
    {
      "inputs": [],
      "name": "token",
      "outputs": [
        {
          "internalType": "address",
          "name": "",
          "type": "address"
        }
      ],
      "stateMutability": "view",
      "type": "function"
    },
    {
      "inputs": [],
      "name": "totalSupply",
      "outputs": [
        {
          "internalType": "uint256",
          "name": "",
          "type": "uint256"
        }
      ],
      "stateMutability": "view",
      "type": "function"
    },
    {
      "inputs": [
        {
          "internalType": "uint256",
          "name": "_block",
          "type": "uint256"
        }
      ],
      "name": "totalSupplyAt",
      "outputs": [
        {
          "internalType": "uint256",
          "name": "",
          "type": "uint256"
        }
      ],
      "stateMutability": "view",
      "type": "function"
    },
    {
      "inputs": [
        {
          "internalType": "uint256",
          "name": "t",
          "type": "uint256"
        }
      ],
      "name": "totalSupplyAtT",
      "outputs": [
        {
          "internalType": "uint256",
          "name": "",
          "type": "uint256"
        }
      ],
      "stateMutability": "view",
      "type": "function"
    },
    {
      "inputs": [
        {
          "internalType": "address",
          "name": "newOwner",
          "type": "address"
        }
      ],
      "name": "transferOwnership",
      "outputs": [],
      "stateMutability": "nonpayable",
      "type": "function"
    },
    {
      "inputs": [],
      "name": "transfersEnabled",
      "outputs": [
        {
          "internalType": "bool",
          "name": "",
          "type": "bool"
        }
      ],
      "stateMutability": "view",
      "type": "function"
    },
    {
      "inputs": [],
      "name": "unlock",
      "outputs": [],
      "stateMutability": "nonpayable",
      "type": "function"
    },
    {
      "inputs": [],
      "name": "unlocked",
      "outputs": [
        {
          "internalType": "bool",
          "name": "",
          "type": "bool"
        }
      ],
      "stateMutability": "view",
      "type": "function"
    },
    {
      "inputs": [
        {
          "internalType": "address",
          "name": "",
          "type": "address"
        }
      ],
      "name": "user_point_epoch",
      "outputs": [
        {
          "internalType": "uint256",
          "name": "",
          "type": "uint256"
        }
      ],
      "stateMutability": "view",
      "type": "function"
    },
    {
      "inputs": [
        {
          "internalType": "address",
          "name": "",
          "type": "address"
        },
        {
          "internalType": "uint256",
          "name": "",
          "type": "uint256"
        }
      ],
      "name": "user_point_history",
      "outputs": [
        {
          "internalType": "int128",
          "name": "bias",
          "type": "int128"
        },
        {
          "internalType": "int128",
          "name": "slope",
          "type": "int128"
        },
        {
          "internalType": "uint256",
          "name": "ts",
          "type": "uint256"
        },
        {
          "internalType": "uint256",
          "name": "blk",
          "type": "uint256"
        }
      ],
      "stateMutability": "view",
      "type": "function"
    },
    {
      "inputs": [
        {
          "internalType": "address",
          "name": "_addr",
          "type": "address"
        },
        {
          "internalType": "uint256",
          "name": "_idx",
          "type": "uint256"
        }
      ],
      "name": "user_point_history__ts",
      "outputs": [
        {
          "internalType": "uint256",
          "name": "",
          "type": "uint256"
        }
      ],
      "stateMutability": "view",
      "type": "function"
    },
    {
      "inputs": [],
      "name": "version",
      "outputs": [
        {
          "internalType": "string",
          "name": "",
          "type": "string"
        }
      ],
      "stateMutability": "view",
      "type": "function"
    },
    {
      "inputs": [],
      "name": "withdraw",
      "outputs": [],
      "stateMutability": "nonpayable",
      "type": "function"
    },
    {
      "inputs": [
        {
          "internalType": "uint256",
          "name": "_value",
          "type": "uint256"
        },
        {
          "internalType": "uint256",
          "name": "_unlock_time",
          "type": "uint256"
        }
      ],
      "name": "withdraw_and_create_lock",
      "outputs": [],
      "stateMutability": "nonpayable",
      "type": "function"
    }
  ],
  "transactionHash": "0x8cfeeae8464c8d1917d617857f37ffef1769ab37fa0ecad51ba2085ce3e2e8e4",
  "args": [
    "0x8c2caDe1825966ceC1f3Cdb19695c526A72f55b3",
    2419200
  ],
  "numDeployments": 1,
  "solcInputHash": "e7e2ce959ebcfbb3fe485b4ae03f4168",
  "bytecode": "0x60c06040523480156200001157600080fd5b50604051620036c2380380620036c283398101604081905262000034916200011f565b6200003f33620000cf565b6001805560609190911b6001600160601b03191660a052600080526006602052437f54cdd369e4e8a8515e52ca72ec816c2101831ad1f18bf44102ed171459c9b4fa55427f54cdd369e4e8a8515e52ca72ec816c2101831ad1f18bf44102ed171459c9b4f955600a8054600160a01b6001600160a81b03199091163360ff60a01b19161717905560805262000159565b600080546001600160a01b038381166001600160a01b0319831681178455604051919092169283917f8be0079c531659141344cd1fd0a4f28419497f9722a3daafe3b4186f6b6457e09190a35050565b6000806040838503121562000132578182fd5b82516001600160a01b038116811462000149578283fd5b6020939093015192949293505050565b60805160a05160601c61352b620001976000396000818161076c015281816119c80152611d330152600081816104a20152611b25015261352b6000f3fe608060405234801561001057600080fd5b50600436106102de5760003560e01c8063715018a611610186578063bef97c87116100e3578063da020a1811610097578063f2fde38b11610071578063f2fde38b14610734578063f77c479114610747578063fc0c546a1461076757600080fd5b8063da020a1814610703578063ee00ef3a14610716578063eff7a6121461072157600080fd5b8063cbf9fe5f116100c8578063cbf9fe5f1461065d578063d07b705f146106a5578063d1febfb9146106b857600080fd5b8063bef97c8714610630578063c2c4c5c11461065557600080fd5b806395d89b411161013a578063a69df4b51161011f578063a69df4b5146105dc578063ac25f266146105e4578063adc63589146105f757600080fd5b806395d89b411461031f578063981b24d0146105c957600080fd5b80638da5cb5b1161016b5780638da5cb5b1461056e578063900cf0cf146105ad57806390fad1e6146105b657600080fd5b8063715018a6146105535780637c74a1741461055b57600080fd5b80633cebb8231161023f57806365fc3873116101f35780637116c60c116101cd5780637116c60c146104f7578063711974841461050a5780637142a6a61461054057600080fd5b806365fc3873146104c45780636a5e2650146104d757806370a08231146104e457600080fd5b80634ee2cd7e116102245780634ee2cd7e1461044e57806354fd4d50146104615780635b51c3081461049d57600080fd5b80633cebb823146104285780634957677c1461043b57600080fd5b806328d09d47116102965780633617a2041161027b5780633617a204146103da5780633a46273e1461040d5780633ccfd60b1461042057600080fd5b806328d09d4714610385578063313ce567146103c057600080fd5b806306fdde03116102c757806306fdde031461031f57806318160ddd146103685780632371eb231461037057600080fd5b8063010ae757146102e3578063047fc9aa14610316575b600080fd5b6103036102f1366004612fe1565b60086020526000908152604090205481565b6040519081526020015b60405180910390f35b61030360025481565b61035b6040518060400160405280600681526020017f766557454649000000000000000000000000000000000000000000000000000081525081565b60405161030d9190613099565b61030361078e565b61038361037e36600461305c565b61079e565b005b610398610393366004612ffb565b610883565b60408051600f95860b81529390940b602084015292820152606081019190915260800161030d565b6103c8601281565b60405160ff909116815260200161030d565b6103fd6103e8366004612fe1565b600b6020526000908152604090205460ff1681565b604051901515815260200161030d565b61038361041b366004612ffb565b6108d7565b610383610a6a565b610383610436366004612fe1565b610a85565b610383610449366004613044565b610af0565b61030361045c366004612ffb565b610bc6565b61035b6040518060400160405280600581526020017f312e302e3000000000000000000000000000000000000000000000000000000081525081565b6103037f000000000000000000000000000000000000000000000000000000000000000081565b6103836104d236600461305c565b610f7f565b6003546103fd9060ff1681565b6103036104f2366004612fe1565b611040565b610303610505366004613044565b61104c565b61052d610518366004613044565b600960205260009081526040902054600f0b81565b604051600f9190910b815260200161030d565b61038361054e36600461305c565b611057565b6103836111ea565b61052d610569366004612fe1565b6111fc565b60005473ffffffffffffffffffffffffffffffffffffffff165b60405173ffffffffffffffffffffffffffffffffffffffff909116815260200161030d565b61030360055481565b6103836105c4366004612fe1565b61128a565b6103036105d7366004613044565b6112de565b6103836114a7565b6103836105f2366004612fe1565b6114dc565b610303610605366004612fe1565b73ffffffffffffffffffffffffffffffffffffffff1660009081526004602052604090206001015490565b600a546103fd9074010000000000000000000000000000000000000000900460ff1681565b610383611533565b61068b61066b366004612fe1565b60046020526000908152604090208054600190910154600f9190910b9082565b60408051600f9390930b835260208301919091520161030d565b6103036106b3366004612ffb565b6115c4565b6103986106c6366004613044565b600660205260009081526040902080546001820154600290920154600f82810b93700100000000000000000000000000000000909304900b919084565b610303610711366004612ffb565b6115d7565b6103036305a39a8081565b61038361072f366004613044565b611647565b610383610742366004612fe1565b611711565b600a546105889073ffffffffffffffffffffffffffffffffffffffff1681565b6105887f000000000000000000000000000000000000000000000000000000000000000081565b6000610799426117ab565b905090565b6107a6611820565b33321461081157336000908152600b602052604090205460ff166108115760405162461bcd60e51b815260206004820152601a60248201527f536d61727420636f6e7472616374206e6f7420616c6c6f77656400000000000060448201526064015b60405180910390fd5b60035460ff16156108645760405162461bcd60e51b815260206004820152601160248201527f756e6c6f636b656420676c6f62616c6c790000000000000000000000000000006044820152606401610808565b61086c61187a565b6108768282611a72565b61087f60018055565b5050565b600760205281600052604060002081633b9aca0081106108a257600080fd5b6003020180546001820154600290920154600f82810b955070010000000000000000000000000000000090920490910b925084565b6108df611820565b60035460ff16156109325760405162461bcd60e51b815260206004820152601160248201527f756e6c6f636b656420676c6f62616c6c790000000000000000000000000000006044820152606401610808565b73ffffffffffffffffffffffffffffffffffffffff821660009081526004602090815260409182902082518084019093528054600f90810b810b900b835260010154908201528161098257600080fd5b60008160000151600f0b136109d95760405162461bcd60e51b815260206004820152601660248201527f4e6f206578697374696e67206c6f636b20666f756e64000000000000000000006044820152606401610808565b42816020015111610a515760405162461bcd60e51b8152602060048201526024808201527f43616e6e6f742061646420746f2065787069726564206c6f636b2e205769746860448201527f64726177000000000000000000000000000000000000000000000000000000006064820152608401610808565b610a6083836000846000611c2f565b5061087f60018055565b610a72611820565b610a7a61187a565b610a8360018055565b565b600a5473ffffffffffffffffffffffffffffffffffffffff163314610aa957600080fd5b600a80547fffffffffffffffffffffffff00000000000000000000000000000000000000001673ffffffffffffffffffffffffffffffffffffffff92909216919091179055565b610af8611820565b333214610b5e57336000908152600b602052604090205460ff16610b5e5760405162461bcd60e51b815260206004820152601a60248201527f536d61727420636f6e7472616374206e6f7420616c6c6f7765640000000000006044820152606401610808565b60035460ff1615610bb15760405162461bcd60e51b815260206004820152601160248201527f756e6c6f636b656420676c6f62616c6c790000000000000000000000000000006044820152606401610808565b610bba81611e00565b610bc360018055565b50565b600043821115610bd557600080fd5b73ffffffffffffffffffffffffffffffffffffffff8316600090815260086020526040812054815b6080811015610cce57818310610c1257610cce565b60006002610c2084866131a8565b610c2b9060016131a8565b610c359190613234565b73ffffffffffffffffffffffffffffffffffffffff88166000908152600760205260409020909150869082633b9aca008110610c9a577f4e487b7100000000000000000000000000000000000000000000000000000000600052603260045260246000fd5b600302016002015411610caf57809350610cbd565b610cba60018261341b565b92505b50610cc78161345e565b9050610bfd565b5073ffffffffffffffffffffffffffffffffffffffff8516600090815260076020526040812083633b9aca008110610d2f577f4e487b7100000000000000000000000000000000000000000000000000000000600052603260045260246000fd5b60408051608081018252600392909202929092018054600f81810b810b810b8452700100000000000000000000000000000000909104810b810b900b602083015260018101549282019290925260029091015460608201526005549091506000610d998783611f18565b600081815260066020908152604080832081516080810183528154600f81810b810b810b8352700100000000000000000000000000000000909104810b810b900b938101939093526001810154918301919091526002015460608201529192508084841015610ea2576000600681610e128760016131a8565b8152602080820192909252604090810160002081516080810183528154600f81810b810b810b8352700100000000000000000000000000000000909104810b810b900b93810193909352600181015491830191909152600201546060808301829052860151919250610e84919061341b565b925083604001518160400151610e9a919061341b565b915050610ec6565b6060830151610eb1904361341b565b9150826040015142610ec3919061341b565b90505b60408301518215610f03578284606001518c610ee2919061341b565b610eec90846132fa565b610ef69190613234565b610f0090826131a8565b90505b6040870151610f12908261341b565b8760200151610f219190613248565b87518890610f30908390613337565b600f90810b810b90915288516000910b129050610f6b57505093516fffffffffffffffffffffffffffffffff169650610f7995505050505050565b600099505050505050505050505b92915050565b610f87611820565b333214610fed57336000908152600b602052604090205460ff16610fed5760405162461bcd60e51b815260206004820152601a60248201527f536d61727420636f6e7472616374206e6f7420616c6c6f7765640000000000006044820152606401610808565b60035460ff161561086c5760405162461bcd60e51b815260206004820152601160248201527f756e6c6f636b656420676c6f62616c6c790000000000000000000000000000006044820152606401610808565b6000610f798242611fa2565b6000610f79826117ab565b61105f611820565b3332146110c557336000908152600b602052604090205460ff166110c55760405162461bcd60e51b815260206004820152601a60248201527f536d61727420636f6e7472616374206e6f7420616c6c6f7765640000000000006044820152606401610808565b60035460ff16156111185760405162461bcd60e51b815260206004820152601160248201527f756e6c6f636b656420676c6f62616c6c790000000000000000000000000000006044820152606401610808565b60008211806111275750600081115b6111995760405162461bcd60e51b815260206004820152602160248201527f56616c756520616e6420556e6c6f636b2063616e6e6f7420626f74682062652060448201527f30000000000000000000000000000000000000000000000000000000000000006064820152608401610808565b6000821180156111a95750600081115b156111c5576111b782611e00565b6111c0816120e0565b610876565b6000821180156111d3575080155b156111e1576111c082611e00565b610876816120e0565b6111f261229b565b610a836000612302565b73ffffffffffffffffffffffffffffffffffffffff81166000908152600860209081526040808320546007909252822081633b9aca008110611267577f4e487b7100000000000000000000000000000000000000000000000000000000600052603260045260246000fd5b60030201547001000000000000000000000000000000009004600f0b9392505050565b61129261229b565b73ffffffffffffffffffffffffffffffffffffffff166000908152600b6020526040902080547fffffffffffffffffffffffffffffffffffffffffffffffffffffffffffffff00169055565b6000438211156112ed57600080fd5b60055460006112fc8483611f18565b600081815260066020908152604080832081516080810183528154600f81810b810b810b8352700100000000000000000000000000000000909104810b810b900b93810193909352600181015491830191909152600201546060820152919250838310156114355760006006816113748660016131a8565b8152602080820192909252604090810160002081516080810183528154600f81810b810b810b8352700100000000000000000000000000000000909104810b810b900b938101939093526001810154918301919091526002015460608083018290528501519192501461142f57826060015181606001516113f5919061341b565b83604001518260400151611409919061341b565b6060850151611418908a61341b565b61142291906132fa565b61142c9190613234565b91505b50611484565b4382606001511461148457606082015161144f904361341b565b604083015161145e904261341b565b606084015161146d908961341b565b61147791906132fa565b6114819190613234565b90505b61149d8282846040015161149891906131a8565b612377565b9695505050505050565b6114af61229b565b600380547fffffffffffffffffffffffffffffffffffffffffffffffffffffffffffffff00166001179055565b6114e461229b565b73ffffffffffffffffffffffffffffffffffffffff166000908152600b6020526040902080547fffffffffffffffffffffffffffffffffffffffffffffffffffffffffffffff00166001179055565b60035460ff16156115865760405162461bcd60e51b815260206004820152601160248201527f756e6c6f636b656420676c6f62616c6c790000000000000000000000000000006044820152606401610808565b610a83600060405180604001604052806000600f0b8152602001600081525060405180604001604052806000600f0b8152602001600081525061248a565b60006115d08383611fa2565b9392505050565b73ffffffffffffffffffffffffffffffffffffffff8216600090815260076020526040812082633b9aca008110611637577f4e487b7100000000000000000000000000000000000000000000000000000000600052603260045260246000fd5b6003020160010154905092915050565b61164f611820565b3332146116b557336000908152600b602052604090205460ff166116b55760405162461bcd60e51b815260206004820152601a60248201527f536d61727420636f6e7472616374206e6f7420616c6c6f7765640000000000006044820152606401610808565b60035460ff16156117085760405162461bcd60e51b815260206004820152601160248201527f756e6c6f636b656420676c6f62616c6c790000000000000000000000000000006044820152606401610808565b610bba816120e0565b61171961229b565b73ffffffffffffffffffffffffffffffffffffffff81166117a25760405162461bcd60e51b815260206004820152602660248201527f4f776e61626c653a206e6577206f776e657220697320746865207a65726f206160448201527f64647265737300000000000000000000000000000000000000000000000000006064820152608401610808565b610bc381612302565b600554600081815260066020908152604080832081516080810183528154600f81810b810b810b8352700100000000000000000000000000000000909104810b810b900b938101939093526001810154918301919091526002015460608201529091906118188185612377565b949350505050565b600260015414156118735760405162461bcd60e51b815260206004820152601f60248201527f5265656e7472616e637947756172643a207265656e7472616e742063616c6c006044820152606401610808565b6002600155565b3360009081526004602090815260409182902082518084019093528054600f90810b810b810b80855260019092015492840192909252600354910b9060ff166119115781602001514210156119115760405162461bcd60e51b815260206004820152601660248201527f546865206c6f636b206469646e277420657870697265000000000000000000006044820152606401610808565b60408051808201825260008082526020808301828152338352600490915292902090518154600f9190910b6fffffffffffffffffffffffffffffffff167fffffffffffffffffffffffffffffffff00000000000000000000000000000000909116178155905160019091015560025461198a828261341b565b60025560408051808201909152600080825260208201526119ae903390859061248a565b6119ef73ffffffffffffffffffffffffffffffffffffffff7f0000000000000000000000000000000000000000000000000000000000000000163384612c57565b6040805183815242602082015233917ff279e6a1f5e320cca91135676d9cb6e44ca8a08c0b88342bcdb1144f6511b568910160405180910390a27f5e2aa66efd74cce82b21852e317e5490d9ecc9e6bb953ae24d90851258cc2f5c81611a55848261341b565b6040805192835260208301919091520160405180910390a1505050565b60008211611a7f57600080fd5b3360009081526004602090815260409182902082518084019093528054600f90810b810b810b80855260019092015492840192909252900b15611b045760405162461bcd60e51b815260206004820152601960248201527f5769746864726177206f6c6420746f6b656e73206669727374000000000000006044820152606401610808565b600062093a80611b148185613234565b611b1e91906132fa565b9050611b4a7f0000000000000000000000000000000000000000000000000000000000000000426131a8565b811015611bbe5760405162461bcd60e51b8152602060048201526024808201527f566f74696e67206c6f636b206d757374206265206174206c65617374204d494e60448201527f54494d45000000000000000000000000000000000000000000000000000000006064820152608401610808565b611bcc6305a39a80426131a8565b811115611c1b5760405162461bcd60e51b815260206004820152601e60248201527f566f74696e67206c6f636b2063616e2062652033207965617273206d617800006044820152606401610808565b611c29338583856001611c2f565b50505050565b6002548290611c3e86826131a8565b6002556040805180820190915260008082526020820152825160208085015190830152600f90810b900b8152825187908490611c7b908390613139565b600f90810b900b9052508515611c9357602083018690525b73ffffffffffffffffffffffffffffffffffffffff8816600090815260046020908152604090912084518154600f9190910b6fffffffffffffffffffffffffffffffff167fffffffffffffffffffffffffffffffff0000000000000000000000000000000090911617815590840151600190910155611d1388828561248a565b8615611d5b57611d5b73ffffffffffffffffffffffffffffffffffffffff7f00000000000000000000000000000000000000000000000000000000000000001689308a612d2b565b82602001518873ffffffffffffffffffffffffffffffffffffffff167fbe9cf0e939c614fad640a623a53ba0a807c8cb503c4c4c8dacabe27b86ff2dd5898742604051611daa939291906130ea565b60405180910390a37f5e2aa66efd74cce82b21852e317e5490d9ecc9e6bb953ae24d90851258cc2f5c82611dde89826131a8565b6040805192835260208301919091520160405180910390a15050505050505050565b3360009081526004602090815260409182902082518084019093528054600f90810b810b900b8352600101549082015281611e3a57600080fd5b60008160000151600f0b13611e915760405162461bcd60e51b815260206004820152601660248201527f4e6f206578697374696e67206c6f636b20666f756e64000000000000000000006044820152606401610808565b42816020015111611f095760405162461bcd60e51b8152602060048201526024808201527f43616e6e6f742061646420746f2065787069726564206c6f636b2e205769746860448201527f64726177000000000000000000000000000000000000000000000000000000006064820152608401610808565b61087f33836000846002611c2f565b60008082815b6080811015611f9857818310611f3357611f98565b60006002611f4184866131a8565b611f4c9060016131a8565b611f569190613234565b6000818152600660205260409020600201549091508710611f7957809350611f87565b611f8460018261341b565b92505b50611f918161345e565b9050611f1e565b5090949350505050565b73ffffffffffffffffffffffffffffffffffffffff821660009081526008602052604081205480611fd7576000915050610f79565b73ffffffffffffffffffffffffffffffffffffffff8416600090815260076020526040812082633b9aca008110612037577f4e487b7100000000000000000000000000000000000000000000000000000000600052603260045260246000fd5b60408051608081018252600392909202929092018054600f81810b810b810b8452700100000000000000000000000000000000909104810b810b900b60208301526001810154928201839052600201546060820152915061209890856133a7565b81602001516120a79190613248565b815182906120b6908390613337565b600f90810b810b90915282516000910b121590506120d357600081525b51600f0b9150610f799050565b33600090815260046020908152604080832081518083019092528054600f90810b810b900b825260010154918101919091529062093a806121218185613234565b61212b91906132fa565b9050428260200151116121805760405162461bcd60e51b815260206004820152600c60248201527f4c6f636b206578706972656400000000000000000000000000000000000000006044820152606401610808565b60008260000151600f0b136121d75760405162461bcd60e51b815260206004820152601160248201527f4e6f7468696e67206973206c6f636b65640000000000000000000000000000006044820152606401610808565b8160200151811161222a5760405162461bcd60e51b815260206004820152601f60248201527f43616e206f6e6c7920696e637265617365206c6f636b206475726174696f6e006044820152606401610808565b6122386305a39a80426131a8565b8111156122875760405162461bcd60e51b815260206004820152601e60248201527f566f74696e67206c6f636b2063616e2062652033207965617273206d617800006044820152606401610808565b61229633600083856003611c2f565b505050565b60005473ffffffffffffffffffffffffffffffffffffffff163314610a835760405162461bcd60e51b815260206004820181905260248201527f4f776e61626c653a2063616c6c6572206973206e6f7420746865206f776e65726044820152606401610808565b6000805473ffffffffffffffffffffffffffffffffffffffff8381167fffffffffffffffffffffffff0000000000000000000000000000000000000000831681178455604051919092169283917f8be0079c531659141344cd1fd0a4f28419497f9722a3daafe3b4186f6b6457e09190a35050565b600080839050600062093a808083604001516123939190613234565b61239d91906132fa565b905060005b60ff811015612459576123b862093a80836131a8565b91506000858311156123cc578592506123e0565b50600082815260096020526040902054600f0b5b60408401516123ef908461341b565b84602001516123fe9190613248565b8451859061240d908390613337565b600f90810b900b905250828614156124255750612459565b80846020018181516124379190613139565b600f90810b900b90525050604083018290526124528161345e565b90506123a2565b5060008260000151600f0b121561246f57600082525b50516fffffffffffffffffffffffffffffffff169392505050565b604080516080810182526000808252602082018190529181018290526060810191909152604080516080810182526000808252602082018190529181018290526060810191909152600554600090819073ffffffffffffffffffffffffffffffffffffffff88161561261c57428760200151118015612510575060008760000151600f0b135b1561255d578651612526906305a39a80906131c0565b600f90810b900b60208087019190915287015161254490429061341b565b85602001516125539190613248565b600f90810b900b85525b428660200151118015612577575060008660000151600f0b135b156125c457855161258d906305a39a80906131c0565b600f90810b900b6020808601919091528601516125ab90429061341b565b84602001516125ba9190613248565b600f90810b900b84525b602080880151600090815260098252604090205490870151600f9190910b93501561261c578660200151866020015114156126015782915061261c565b602080870151600090815260099091526040902054600f0b91505b6040805160808101825260008082526020820152429181019190915243606082015281156126a6575060008181526006602090815260409182902082516080810184528154600f81810b810b810b8352700100000000000000000000000000000000909104810b810b900b9281019290925260018101549282019290925260029091015460608201525b6040810151606082015181906000428310156126f95760408501516126cb904261341b565b60608601516126da904361341b565b6126ec90670de0b6b3a76400006132fa565b6126f69190613234565b90505b600062093a806127098187613234565b61271391906132fa565b905060005b60ff8110156128a85761272e62093a80836131a8565b915060004283111561274257429250612756565b50600082815260096020526040902054600f0b5b612760878461341b565b886020015161276f9190613248565b8851899061277e908390613337565b600f90810b900b90525060208801805182919061279c908390613139565b600f90810b810b90915289516000910b121590506127b957600088525b60008860200151600f0b12156127d157600060208901525b604088018390529195508591670de0b6b3a76400006127f0878561341b565b6127fa90866132fa565b6128049190613234565b61280e90866131a8565b606089015261281e60018a6131a8565b98504283141561283457504360608801526128a8565b6000898152600660209081526040918290208a51918b0151600f90810b6fffffffffffffffffffffffffffffffff908116700100000000000000000000000000000000029390910b169190911781559089015160018201556060890151600290910155506128a18161345e565b9050612718565b50600587905573ffffffffffffffffffffffffffffffffffffffff8e161561294e578a602001518a602001516128de9190613337565b866020018181516128ef9190613139565b600f90810b900b9052508a518a516129079190613337565b86518790612916908390613139565b600f90810b810b90915260208801516000910b1215905061293957600060208701525b60008660000151600f0b121561294e57600086525b600087815260066020908152604091829020885191890151600f90810b6fffffffffffffffffffffffffffffffff908116700100000000000000000000000000000000029390910b16919091178155908701516001820155606087015160029091015573ffffffffffffffffffffffffffffffffffffffff8e1615612c4757428d602001511115612a5f5760208b01516129e8908a613139565b98508c602001518c602001511415612a0c5760208a0151612a09908a613337565b98505b60208d810151600090815260099091526040902080547fffffffffffffffffffffffffffffffff00000000000000000000000000000000166fffffffffffffffffffffffffffffffff600f8c900b161790555b428c602001511115612adf578c602001518c602001511115612adf5760208a0151612a8a9089613337565b60208d810151600090815260099091526040902080547fffffffffffffffffffffffffffffffff00000000000000000000000000000000166fffffffffffffffffffffffffffffffff600f84900b1617905597505b73ffffffffffffffffffffffffffffffffffffffff8e166000908152600860205260408120548f9190612b139060016131a8565b905080600860008473ffffffffffffffffffffffffffffffffffffffff1673ffffffffffffffffffffffffffffffffffffffff16815260200190815260200160002081905550428c6040018181525050438c60600181815250508b600760008473ffffffffffffffffffffffffffffffffffffffff1673ffffffffffffffffffffffffffffffffffffffff16815260200190815260200160002082633b9aca008110612be8577f4e487b7100000000000000000000000000000000000000000000000000000000600052603260045260246000fd5b82516020840151600f90810b6fffffffffffffffffffffffffffffffff908116700100000000000000000000000000000000029290910b1617600391909102919091019081556040820151600182015560609091015160029091015550505b5050505050505050505050505050565b60405173ffffffffffffffffffffffffffffffffffffffff83166024820152604481018290526122969084907fa9059cbb00000000000000000000000000000000000000000000000000000000906064015b604080517fffffffffffffffffffffffffffffffffffffffffffffffffffffffffffffffe08184030181529190526020810180517bffffffffffffffffffffffffffffffffffffffffffffffffffffffff167fffffffff0000000000000000000000000000000000000000000000000000000090931692909217909152612d89565b60405173ffffffffffffffffffffffffffffffffffffffff80851660248301528316604482015260648101829052611c299085907f23b872dd0000000000000000000000000000000000000000000000000000000090608401612ca9565b6000612deb826040518060400160405280602081526020017f5361666545524332303a206c6f772d6c6576656c2063616c6c206661696c65648152508573ffffffffffffffffffffffffffffffffffffffff16612e7e9092919063ffffffff16565b9050805160001480612e0c575080806020019051810190612e0c9190613024565b6122965760405162461bcd60e51b815260206004820152602a60248201527f5361666545524332303a204552433230206f7065726174696f6e20646964206e60448201527f6f742073756363656564000000000000000000000000000000000000000000006064820152608401610808565b60606118188484600085856000808673ffffffffffffffffffffffffffffffffffffffff168587604051612eb2919061307d565b60006040518083038185875af1925050503d8060008114612eef576040519150601f19603f3d011682016040523d82523d6000602084013e612ef4565b606091505b5091509150612f0587838387612f10565b979650505050505050565b60608315612f89578251612f825773ffffffffffffffffffffffffffffffffffffffff85163b612f825760405162461bcd60e51b815260206004820152601d60248201527f416464726573733a2063616c6c20746f206e6f6e2d636f6e74726163740000006044820152606401610808565b5081611818565b6118188383815115612f9e5781518083602001fd5b8060405162461bcd60e51b81526004016108089190613099565b803573ffffffffffffffffffffffffffffffffffffffff81168114612fdc57600080fd5b919050565b600060208284031215612ff2578081fd5b6115d082612fb8565b6000806040838503121561300d578081fd5b61301683612fb8565b946020939093013593505050565b600060208284031215613035578081fd5b815180151581146115d0578182fd5b600060208284031215613055578081fd5b5035919050565b6000806040838503121561306e578182fd5b50508035926020909101359150565b6000825161308f818460208701613432565b9190910192915050565b60208152600082518060208401526130b8816040850160208701613432565b601f017fffffffffffffffffffffffffffffffffffffffffffffffffffffffffffffffe0169190910160400192915050565b8381526060810160048410613128577f4e487b7100000000000000000000000000000000000000000000000000000000600052602160045260246000fd5b602082019390935260400152919050565b600081600f0b83600f0b828212826f7fffffffffffffffffffffffffffffff0382138115161561316b5761316b613497565b827fffffffffffffffffffffffffffffffff8000000000000000000000000000000003821281161561319f5761319f613497565b50019392505050565b600082198211156131bb576131bb613497565b500190565b600081600f0b83600f0b806131d7576131d76134c6565b7fffffffffffffffffffffffffffffffffffffffffffffffffffffffffffffffff81147fffffffffffffffffffffffffffffffff800000000000000000000000000000008314161561322b5761322b613497565b90059392505050565b600082613243576132436134c6565b500490565b600081600f0b83600f0b6f7fffffffffffffffffffffffffffffff8382138484138383048511828216161561327f5761327f613497565b7fffffffffffffffffffffffffffffffff80000000000000000000000000000000868512868205861281841616156132b9576132b9613497565b8787129250858205871284841616156132d4576132d4613497565b858505871281841616156132ea576132ea613497565b5050509290910295945050505050565b6000817fffffffffffffffffffffffffffffffffffffffffffffffffffffffffffffffff048311821515161561333257613332613497565b500290565b600081600f0b83600f0b828112817fffffffffffffffffffffffffffffffff800000000000000000000000000000000183128115161561337957613379613497565b816f7fffffffffffffffffffffffffffffff01831381161561339d5761339d613497565b5090039392505050565b6000808312837f8000000000000000000000000000000000000000000000000000000000000000018312811516156133e1576133e1613497565b837f7fffffffffffffffffffffffffffffffffffffffffffffffffffffffffffffff01831381161561341557613415613497565b50500390565b60008282101561342d5761342d613497565b500390565b60005b8381101561344d578181015183820152602001613435565b83811115611c295750506000910152565b60007fffffffffffffffffffffffffffffffffffffffffffffffffffffffffffffffff82141561349057613490613497565b5060010190565b7f4e487b7100000000000000000000000000000000000000000000000000000000600052601160045260246000fd5b7f4e487b7100000000000000000000000000000000000000000000000000000000600052601260045260246000fdfea26469706673582212206319ffea03ecc888a22107defa3e9d72c9d6b365410f2ff9f7908ce7517e25b564736f6c63430008040033",
  "devdoc": {
    "kind": "dev",
    "methods": {
      "add_to_whitelist(address)": {
        "params": {
          "addr": "Address to be whitelisted"
        }
      },
      "balanceOfAt(address,uint256)": {
        "details": "Adheres to MiniMe `balanceOfAt` interface: https://github.com/Giveth/minime",
        "params": {
          "_block": "Block to calculate the voting power at",
          "addr": "User's wallet address"
        },
        "returns": {
          "_0": "Voting power"
        }
      },
      "constructor": {
        "params": {
          "token_addr": "`ERC20CRV` token address"
        }
      },
      "create_lock(uint256,uint256)": {
        "params": {
          "_unlock_time": "Epoch time when tokens unlock, rounded down to whole weeks",
          "_value": "Amount to deposit"
        }
      },
      "deposit_for(address,uint256)": {
        "details": "Anyone (even a smart contract) can deposit for someone else, but      cannot extend their locktime and deposit for a brand new user",
        "params": {
          "_addr": "User's wallet address",
          "_value": "Amount to add to user's lock"
        }
      },
      "get_last_user_slope(address)": {
        "params": {
          "addr": "Address of the user wallet"
        },
        "returns": {
          "_0": "Value of the slope"
        }
      },
      "increase_amount(uint256)": {
        "params": {
          "_value": "Amount of tokens to deposit and add to the lock"
        }
      },
      "increase_amount_and_time(uint256,uint256)": {
        "params": {
          "_unlock_time": "New epoch time for unlocking"
        }
      },
      "increase_unlock_time(uint256)": {
        "params": {
          "_unlock_time": "New epoch time for unlocking"
        }
      },
      "locked__end(address)": {
        "params": {
          "_addr": "User wallet address"
        },
        "returns": {
          "_0": "Epoch time of the lock end"
        }
      },
      "owner()": {
        "details": "Returns the address of the current owner."
      },
      "remove_from_whitelist(address)": {
        "params": {
          "addr": "Address to be removed from whitelist"
        }
      },
      "renounceOwnership()": {
        "details": "Leaves the contract without owner. It will not be possible to call `onlyOwner` functions. Can only be called by the current owner. NOTE: Renouncing ownership will leave the contract without an owner, thereby disabling any functionality that is only available to the owner."
      },
      "totalSupplyAt(uint256)": {
        "params": {
          "_block": "Block to calculate the total voting power at"
        },
        "returns": {
          "_0": "Total voting power at `_block`"
        }
      },
      "transferOwnership(address)": {
        "details": "Transfers ownership of the contract to a new account (`newOwner`). Can only be called by the current owner."
      },
      "user_point_history__ts(address,uint256)": {
        "params": {
          "_addr": "User wallet address",
          "_idx": "User epoch number"
        },
        "returns": {
          "_0": "Epoch time of the checkpoint"
        }
      },
      "withdraw_and_create_lock(uint256,uint256)": {
        "params": {
          "_unlock_time": "Epoch time when tokens unlock, rounded down to whole weeks",
          "_value": "Amount to deposit"
        }
      }
    },
    "version": 1
  },
  "userdoc": {
    "kind": "user",
    "methods": {
      "add_to_whitelist(address)": {
        "notice": "Add address to whitelist smart contract depositors `addr`"
      },
      "balanceOfAt(address,uint256)": {
        "notice": "Measure voting power of `addr` at block height `_block`"
      },
      "checkpoint()": {
        "notice": "Record global data to checkpoint"
      },
      "constructor": {
        "notice": "Contract constructor"
      },
      "create_lock(uint256,uint256)": {
        "notice": "External function for _create_lock"
      },
      "deposit_for(address,uint256)": {
        "notice": "Deposit `_value` tokens for `_addr` and add to the lock"
      },
      "get_last_user_slope(address)": {
        "notice": "Get the most recently recorded rate of voting power decrease for `_addr`"
      },
      "increase_amount(uint256)": {
        "notice": "Deposit `_value` additional tokens for `msg.sender` without modifying the unlock time"
      },
      "increase_amount_and_time(uint256,uint256)": {
        "notice": "Extend the unlock time and/or for `msg.sender` to `_unlock_time`"
      },
      "increase_unlock_time(uint256)": {
        "notice": "Extend the unlock time for `msg.sender` to `_unlock_time`"
      },
      "locked__end(address)": {
        "notice": "Get timestamp when `_addr`'s lock finishes"
      },
      "remove_from_whitelist(address)": {
        "notice": "Remove a smart contract address from whitelist"
      },
      "totalSupplyAt(uint256)": {
        "notice": "Calculate total voting power at some point in the past"
      },
      "unlock()": {
        "notice": "Unlock all locked balances"
      },
      "user_point_history__ts(address,uint256)": {
        "notice": "Get the timestamp for checkpoint `_idx` for `_addr`"
      },
      "withdraw_and_create_lock(uint256,uint256)": {
        "notice": "Deposit `_value` tokens for `msg.sender` and lock until `_unlock_time`"
      }
    },
    "version": 1
  },
  "storageLayout": {
    "storage": [
      {
        "astId": 7,
        "contract": "contracts/VotingEscrow.sol:VotingEscrow",
        "label": "_owner",
        "offset": 0,
        "slot": "0",
        "type": "t_address"
      },
      {
        "astId": 126,
        "contract": "contracts/VotingEscrow.sol:VotingEscrow",
        "label": "_status",
        "offset": 0,
        "slot": "1",
        "type": "t_uint256"
      },
      {
        "astId": 1720,
        "contract": "contracts/VotingEscrow.sol:VotingEscrow",
        "label": "supply",
        "offset": 0,
        "slot": "2",
        "type": "t_uint256"
      },
      {
        "astId": 1722,
        "contract": "contracts/VotingEscrow.sol:VotingEscrow",
        "label": "unlocked",
        "offset": 0,
        "slot": "3",
        "type": "t_bool"
      },
      {
        "astId": 1727,
        "contract": "contracts/VotingEscrow.sol:VotingEscrow",
        "label": "locked",
        "offset": 0,
        "slot": "4",
        "type": "t_mapping(t_address,t_struct(LockedBalance)1654_storage)"
      },
      {
        "astId": 1729,
        "contract": "contracts/VotingEscrow.sol:VotingEscrow",
        "label": "epoch",
        "offset": 0,
        "slot": "5",
        "type": "t_uint256"
      },
      {
        "astId": 1734,
        "contract": "contracts/VotingEscrow.sol:VotingEscrow",
        "label": "point_history",
        "offset": 0,
        "slot": "6",
        "type": "t_mapping(t_uint256,t_struct(Point)1649_storage)"
      },
      {
        "astId": 1741,
        "contract": "contracts/VotingEscrow.sol:VotingEscrow",
        "label": "user_point_history",
        "offset": 0,
        "slot": "7",
        "type": "t_mapping(t_address,t_array(t_struct(Point)1649_storage)1000000000_storage)"
      },
      {
        "astId": 1745,
        "contract": "contracts/VotingEscrow.sol:VotingEscrow",
        "label": "user_point_epoch",
        "offset": 0,
        "slot": "8",
        "type": "t_mapping(t_address,t_uint256)"
      },
      {
        "astId": 1749,
        "contract": "contracts/VotingEscrow.sol:VotingEscrow",
        "label": "slope_changes",
        "offset": 0,
        "slot": "9",
        "type": "t_mapping(t_uint256,t_int128)"
      },
      {
        "astId": 1751,
        "contract": "contracts/VotingEscrow.sol:VotingEscrow",
        "label": "controller",
        "offset": 0,
        "slot": "10",
        "type": "t_address"
      },
      {
        "astId": 1753,
        "contract": "contracts/VotingEscrow.sol:VotingEscrow",
        "label": "transfersEnabled",
        "offset": 20,
        "slot": "10",
        "type": "t_bool"
      },
      {
        "astId": 1769,
        "contract": "contracts/VotingEscrow.sol:VotingEscrow",
        "label": "contracts_whitelist",
        "offset": 0,
        "slot": "11",
        "type": "t_mapping(t_address,t_bool)"
      }
    ],
    "types": {
      "t_address": {
        "encoding": "inplace",
        "label": "address",
        "numberOfBytes": "20"
      },
      "t_array(t_struct(Point)1649_storage)1000000000_storage": {
        "base": "t_struct(Point)1649_storage",
        "encoding": "inplace",
        "label": "struct Point[1000000000]",
        "numberOfBytes": "96000000000"
      },
      "t_bool": {
        "encoding": "inplace",
        "label": "bool",
        "numberOfBytes": "1"
      },
      "t_int128": {
        "encoding": "inplace",
        "label": "int128",
        "numberOfBytes": "16"
      },
      "t_mapping(t_address,t_array(t_struct(Point)1649_storage)1000000000_storage)": {
        "encoding": "mapping",
        "key": "t_address",
        "label": "mapping(address => struct Point[1000000000])",
        "numberOfBytes": "32",
        "value": "t_array(t_struct(Point)1649_storage)1000000000_storage"
      },
      "t_mapping(t_address,t_bool)": {
        "encoding": "mapping",
        "key": "t_address",
        "label": "mapping(address => bool)",
        "numberOfBytes": "32",
        "value": "t_bool"
      },
      "t_mapping(t_address,t_struct(LockedBalance)1654_storage)": {
        "encoding": "mapping",
        "key": "t_address",
        "label": "mapping(address => struct LockedBalance)",
        "numberOfBytes": "32",
        "value": "t_struct(LockedBalance)1654_storage"
      },
      "t_mapping(t_address,t_uint256)": {
        "encoding": "mapping",
        "key": "t_address",
        "label": "mapping(address => uint256)",
        "numberOfBytes": "32",
        "value": "t_uint256"
      },
      "t_mapping(t_uint256,t_int128)": {
        "encoding": "mapping",
        "key": "t_uint256",
        "label": "mapping(uint256 => int128)",
        "numberOfBytes": "32",
        "value": "t_int128"
      },
      "t_mapping(t_uint256,t_struct(Point)1649_storage)": {
        "encoding": "mapping",
        "key": "t_uint256",
        "label": "mapping(uint256 => struct Point)",
        "numberOfBytes": "32",
        "value": "t_struct(Point)1649_storage"
      },
      "t_struct(LockedBalance)1654_storage": {
        "encoding": "inplace",
        "label": "struct LockedBalance",
        "members": [
          {
            "astId": 1651,
            "contract": "contracts/VotingEscrow.sol:VotingEscrow",
            "label": "amount",
            "offset": 0,
            "slot": "0",
            "type": "t_int128"
          },
          {
            "astId": 1653,
            "contract": "contracts/VotingEscrow.sol:VotingEscrow",
            "label": "end",
            "offset": 0,
            "slot": "1",
            "type": "t_uint256"
          }
        ],
        "numberOfBytes": "64"
      },
      "t_struct(Point)1649_storage": {
        "encoding": "inplace",
        "label": "struct Point",
        "members": [
          {
            "astId": 1642,
            "contract": "contracts/VotingEscrow.sol:VotingEscrow",
            "label": "bias",
            "offset": 0,
            "slot": "0",
            "type": "t_int128"
          },
          {
            "astId": 1644,
            "contract": "contracts/VotingEscrow.sol:VotingEscrow",
            "label": "slope",
            "offset": 16,
            "slot": "0",
            "type": "t_int128"
          },
          {
            "astId": 1646,
            "contract": "contracts/VotingEscrow.sol:VotingEscrow",
            "label": "ts",
            "offset": 0,
            "slot": "1",
            "type": "t_uint256"
          },
          {
            "astId": 1648,
            "contract": "contracts/VotingEscrow.sol:VotingEscrow",
            "label": "blk",
            "offset": 0,
            "slot": "2",
            "type": "t_uint256"
          }
        ],
        "numberOfBytes": "96"
      },
      "t_uint256": {
        "encoding": "inplace",
        "label": "uint256",
        "numberOfBytes": "32"
      }
    }
  }
}